{
  "transactions": [
    {
      "hash": "0x0d06e28df99f7324cbb4696f1b2d41c3bc50f610300f849d05c2fdf84d5c27c3",
      "transactionType": "CALL",
      "contractName": "NFTOutlet",
      "contractAddress": "0xf9F656435493C58421cFe153E5936f0FafF8c05f",
      "function": "changePaymentToken(address)",
      "arguments": [
        "0x6B175474E89094C44Da98b954EedeAC495271d0F"
      ],
      "transaction": {
        "type": "0x02",
        "from": "0x584258d4d63e116216eb74ba328e03486b3b3870",
        "to": "0xf9f656435493c58421cfe153e5936f0faff8c05f",
        "gas": "0xc4d9",
        "value": "0x0",
        "data": "0x4558d7170000000000000000000000006b175474e89094c44da98b954eedeac495271d0f",
        "nonce": "0x1d",
        "accessList": []
      },
      "additionalContracts": [],
      "isFixedGasLimit": false
    }
  ],
  "receipts": [
    {
      "transactionHash": "0x0d06e28df99f7324cbb4696f1b2d41c3bc50f610300f849d05c2fdf84d5c27c3",
      "transactionIndex": "0xe",
      "blockHash": "0x19b58c78f46fa28a3e8cde0f1f6c96f4808e581bca490691388126db008f22fb",
      "blockNumber": "0x11070bc",
      "from": "0x584258D4D63e116216EB74BA328e03486B3B3870",
      "to": "0xf9F656435493C58421cFe153E5936f0FafF8c05f",
      "cumulativeGasUsed": "0x1e2cae",
      "gasUsed": "0x8699",
      "contractAddress": null,
      "logs": [],
      "status": "0x1",
      "logsBloom": "0x00000000000000000000000000000000000000000000000000000000000000000000000000000000000000000000000000000000000000000000000000000000000000000000000000000000000000000000000000000000000000000000000000000000000000000000000000000000000000000000000000000000000000000000000000000000000000000000000000000000000000000000000000000000000000000000000000000000000000000000000000000000000000000000000000000000000000000000000000000000000000000000000000000000000000000000000000000000000000000000000000000000000000000000000000000000",
      "type": "0x2",
      "effectiveGasPrice": "0x3ce330666"
    }
  ],
  "libraries": [],
  "pending": [],
  "returns": {},
  "timestamp": 1691309596,
  "chain": 1,
  "multi": false,
  "commit": "2563a23"
}