{
  "transactions": [
    {
      "hash": "0xff1a5899e60860b86fff1184fa9d74620d1484e9a99787ebe31e85c8fde488ec",
      "transactionType": "CALL",
      "contractName": "NFTOutlet",
      "contractAddress": "0xf9F656435493C58421cFe153E5936f0FafF8c05f",
      "function": "changePaymentToken(address)",
      "arguments": [
        "0x6B175474E89094C44Da98b954EedeAC495271d0F"
      ],
      "transaction": {
        "type": "0x02",
        "from": "0x584258d4d63e116216eb74ba328e03486b3b3870",
        "to": "0xf9f656435493c58421cfe153e5936f0faff8c05f",
        "gas": "0xc4d9",
        "value": "0x0",
        "data": "0x4558d7170000000000000000000000006b175474e89094c44da98b954eedeac495271d0f",
        "nonce": "0x15",
        "accessList": []
      },
      "additionalContracts": [],
      "isFixedGasLimit": false
    }
  ],
  "receipts": [
    {
      "transactionHash": "0xff1a5899e60860b86fff1184fa9d74620d1484e9a99787ebe31e85c8fde488ec",
      "transactionIndex": "0x2b",
      "blockHash": "0x01b9490d0542013b28aa60886636852af69d7276ff26a6d74cd5e242d2411d51",
      "blockNumber": "0x1105ff4",
      "from": "0x584258D4D63e116216EB74BA328e03486B3B3870",
      "to": "0xf9F656435493C58421cFe153E5936f0FafF8c05f",
      "cumulativeGasUsed": "0x8219e2",
      "gasUsed": "0x8699",
      "contractAddress": null,
      "logs": [],
      "status": "0x1",
      "logsBloom": "0x00000000000000000000000000000000000000000000000000000000000000000000000000000000000000000000000000000000000000000000000000000000000000000000000000000000000000000000000000000000000000000000000000000000000000000000000000000000000000000000000000000000000000000000000000000000000000000000000000000000000000000000000000000000000000000000000000000000000000000000000000000000000000000000000000000000000000000000000000000000000000000000000000000000000000000000000000000000000000000000000000000000000000000000000000000000",
      "type": "0x2",
      "effectiveGasPrice": "0x4722c8721"
    }
  ],
  "libraries": [],
  "pending": [],
  "returns": {},
  "timestamp": 1691257684,
  "chain": 1,
  "multi": false,
  "commit": "2563a23"
}