{
  "transactions": [
    {
      "hash": "0x2e067b0d717d8403fdb5351486b0bf3850f088cb97405ddac883c0640da983a8",
      "transactionType": "CALL",
      "contractName": "NFTOutlet",
      "contractAddress": "0xf9F656435493C58421cFe153E5936f0FafF8c05f",
      "function": "changePaymentToken(address)",
      "arguments": [
        "0x6B175474E89094C44Da98b954EedeAC495271d0F"
      ],
      "transaction": {
        "type": "0x02",
        "from": "0x584258d4d63e116216eb74ba328e03486b3b3870",
        "to": "0xf9f656435493c58421cfe153e5936f0faff8c05f",
        "gas": "0xc4d9",
        "value": "0x0",
        "data": "0x4558d7170000000000000000000000006b175474e89094c44da98b954eedeac495271d0f",
        "nonce": "0x1f",
        "accessList": []
      },
      "additionalContracts": [],
      "isFixedGasLimit": false
    }
  ],
  "receipts": [
    {
      "transactionHash": "0x2e067b0d717d8403fdb5351486b0bf3850f088cb97405ddac883c0640da983a8",
      "transactionIndex": "0x30",
      "blockHash": "0x53d0187a9e85b4ada9f6689914f8b856e8dc72fe18b61c5bff40b690dce4b69b",
      "blockNumber": "0x11079b9",
      "from": "0x584258D4D63e116216EB74BA328e03486B3B3870",
      "to": "0xf9F656435493C58421cFe153E5936f0FafF8c05f",
      "cumulativeGasUsed": "0x478def",
      "gasUsed": "0x8699",
      "contractAddress": null,
      "logs": [],
      "status": "0x1",
      "logsBloom": "0x00000000000000000000000000000000000000000000000000000000000000000000000000000000000000000000000000000000000000000000000000000000000000000000000000000000000000000000000000000000000000000000000000000000000000000000000000000000000000000000000000000000000000000000000000000000000000000000000000000000000000000000000000000000000000000000000000000000000000000000000000000000000000000000000000000000000000000000000000000000000000000000000000000000000000000000000000000000000000000000000000000000000000000000000000000000",
      "type": "0x2",
      "effectiveGasPrice": "0x432a8c127"
    }
  ],
  "libraries": [],
  "pending": [],
  "returns": {},
  "timestamp": 1691337438,
  "chain": 1,
  "multi": false,
  "commit": "2563a23"
}